:0400000058EF00F0C5
:10000800FACF11F0FBCF12F0E9CF13F0EACF14F0DA
:10001800E1CF15F0E2CF16F0D9CF17F0DACF18F00C
:10002800F3CF19F0F4CF1AF0F6CF1BF0F7CF1CF08E
:10003800F8CF1DF0F5CF1EF0F2BAF2A418D0000EDA
:10004800D76E0E0ED66E2A50040AD8A403D0000E1E
:100058002A6E01D02A2A28C00FF029C010F0CCEC53
:1000680000F02AC002F0036ACBEC01F0F2941EC043
:10007800F5FF1DC0F8FF1CC0F7FF1BC0F6FF1AC034
:10008800F4FF19C0F3FF18C0DAFF17C0D9FF16C074
:10009800E2FF15C0E1FF14C0EAFF13C0E9FF12C078
:1000A800FBFF11C0FAFF11003DEF02F0016E50D0C6
:1000B8008292829482968298829A829C828E120080
:1000C8008282829482968288828A828C828E1200B0
:1000D8008292829482868298829A828C829E120070
:1000E8008292829482968298828A828C829E120060
:1000F8008282829482968288828A829C829E120060
:100108008292828482968298828A829C829E12003F
:100118008292828482968298829A829C829E12001F
:100128008292829482968288828A828C828E12003F
:100138008292829482968298829A829C829E1200EF
:100148008292829482968298828A829C829E1200EF
:100158000150000AD8B4ACD7010AD8B4B1D7030A01
:10016800D8B4B6D7010AD8B4BBD7070AD8B4C0D711
:10017800010AD8B4C5D7030AD8B4CAD7010AD8B473
:10018800CFD70F0AD8B4D4D7010AD8A41200D8D729
:100198000FC009F010C00AF0000E0C6E0A0E0B6EAC
:1001A80083EC01F009502F6E000E046E0A0E036EE8
:1001B8000FC001F010C002F031EC01F001C009F0ED
:1001C80002C00AF0000E0C6E0A0E0B6E83EC01F0F2
:1001D80009502C6E000E046E640E036E0FC001F001
:1001E80010C002F031EC01F001C009F002C00AF0C1
:1001F800000E0C6E0A0E0B6E83EC01F009502B6E8C
:10020800030E046EE80E036E0FC001F010C002F07A
:1002180031EC01F001C009F002C00AF0000E0C6ECA
:100228000A0E0B6E83EC01F00950316E270E046E36
:10023800100E036E0FC001F010C002F031EC01F097
:1002480001C009F002C00AF0000E0C6E0A0E0B6E17
:1002580083EC01F009502D6E1200000E066E04505A
:10026800800AF36E800EF35C000ED8B4035CD8B03D
:1002780006D0036C041ED8B0042A010E066E025084
:10028800800AF36E800EF35C000ED8B4015CD8B01F
:1002980006D0016C021ED8B0022A010E061A000E02
:1002A800086E000E076E04500310D8B41CD0010E5F
:1002B800056E04D0D89003360436052A04AEFAD762
:1002C800D890073608360350015C04500258D8A06D
:1002D80005D00350015E0450025A0780D8900432BA
:1002E8000332052EEDD70650D8B404D0076C081E8B
:1002F800D8B0082A07C001F008C002F01200000EAA
:100308000E6E0A50800AF36E800EF35C000ED8B4AD
:10031800095CD8B006D0096C0A1ED8B00A2A010EAA
:100328000E6E0C50800AF36E800EF35C000ED8B48B
:100338000B5CD8B004D00B6C0C1ED8B00C2A0C5037
:100348000B10D8B418D0010E0D6E04D0D8900B360F
:100358000C360D2A0CAEFAD70B50095C0C500A5813
:10036800D8A004D00B50095E0C500A5AD8900C3211
:100378000B320D2EF1D70E50D8B404D0096C0A1EDA
:10038800D8B00A2A09C009F00AC00AF012001ED023
:100398002F505AEC00F0010E806E12002C505AECCF
:1003A80000F0020E806E12002B505AEC00F0040E82
:1003B800806E120031505AEC00F0080E806E120068
:1003C8002D505AEC00F0200E806E120002C004F08E
:1003D80003C005F00550000AD8A412000450000A12
:1003E800D8B4D6D7010AD8B4D9D7030AD8B4DCD739
:1003F800010AD8B4DFD7070AD8A41200E1D728EC3D
:1004080002F08268000E276E000E266E2750800AC2
:10041800550F670ED8B4265CD8B0F4D7000E256EF9
:10042800000E246E2550800A650F580ED8B4245C3F
:10043800D8B003D0244A252AF5D726C028F027C0EB
:1004480029F0264A272AE2D7E00EF26E000E926EB5
:10045800000E946E000E936E000E826ED590D582BB
:10046800D594D596D59AD58CF28AF28CF28ED58E03
:10047800120000EE28F00C0EEE6AE806FDE1000E10
:08048800F86E000103EF02F021
:020000040020DA
:08000000FFFFFFFFFFFFFFFF00
:020000040030CA
:0E0000001D087F7FFF8991FF0FC00FE00F40AA
:00000001FF
