:040000004EEF00F0CF
:10000800FACF05F0FBCF06F0E9CF07F0EACF08F00A
:10001800E1CF09F0E2CF0AF0D9CF0BF0DACF0CF03C
:10002800F3CF0DF0F4CF0EF0F6CF0FF0F7CF10F0BE
:10003800F8CF11F0F5CF12F0F2BAF2A40ED01D509D
:10004800040AD8A403D0000E1D6E01D01D2A1DC0BD
:1000580001F0026A50EC00F0F29412C0F5FF11C0F2
:10006800F8FF10C0F7FF0FC0F6FF0EC0F4FF0DC079
:10007800F3FF0CC0DAFF0BC0D9FF0AC0E2FF09C0CA
:10008800E1FF08C0EAFF07C0E9FF06C0FBFF05C0A3
:10009800FAFF11008AEF00F00FD0010E806E1200F7
:1000A800020E806E1200040E806E1200080E806E22
:1000B8001200100E806E120001C003F002C004F09E
:1000C8000450000AD8A412000350000AD8B4E5D797
:1000D800010AD8B4E5D7030AD8B4E5D7010AD8B4D9
:1000E800E5D7070AD8A41200E4D7E00EF26E000E96
:1000F800936E000E926ED580D582D584D596D59A0A
:10010800D58CF28AF28CF28ED58EFFD71D6A1C6AC6
:100118001B6A1A6A196A186A000EF86E000179EFEC
:0201280000F0E5
:020000040020DA
:08000000FFFFFFFFFFFFFFFF00
:020000040030CA
:0E0000001D087F7FFF8991FF0FC00FE00F40AA
:00000001FF
