:0400000054EF00F0C9
:10000800FACF11F0FBCF12F0E9CF13F0EACF14F0DA
:10001800E1CF15F0E2CF16F0D9CF17F0DACF18F00C
:10002800F3CF19F0F4CF1AF0F6CF1BF0F7CF1CF08E
:10003800F8CF1DF0F5CF1EF0F2BAF2A414D0000EDE
:10004800D76E0E0ED66E3850040AD8A403D0000E10
:10005800386E01D0382A38C00DF00E6AE8EC00F08E
:10006800364A372AF2941EC0F5FF1DC0F8FF1CC09F
:10007800F7FF1BC0F6FF1AC0F4FF19C0F3FF18C042
:10008800DAFF17C0D9FF16C0E2FF15C0E1FF14C0A0
:10009800EAFF13C0E9FF12C0FBFF11C0FAFF11000D
:1000A80090EF03F078D036C026F037C027F0000E66
:1000B800296E0A0E286E4EEC03F026507AEC01F0F9
:1000C800010E806E1200000E226E0A0E216E36C0DE
:1000D8001FF037C020F0FCEC02F01FC026F020C053
:1000E80027F0000E296E0A0E286E4EEC03F02650FB
:1000F8007AEC01F0020E806E1200000E226E640E81
:10010800216E36C01FF037C020F0FCEC02F01FC093
:1001180026F020C027F0000E296E0A0E286E4EEC3D
:1001280003F026507AEC01F0040E806E1200030EE4
:10013800226EE80E216E36C01FF037C020F0FCECAE
:1001480002F01FC026F020C027F0000E296E0A0E0C
:10015800286E4EEC03F026507AEC01F0080E806E03
:100168001200270E226E100E216E36C01FF037C007
:1001780020F0FCEC02F01FC026F020C027F0000E93
:10018800296E0A0E286E4EEC03F026507AEC01F028
:10019800200E806E12002BC02DF02CC02EF02E5099
:1001A800000AD8A412002D50000AD8B47CD7010A3E
:1001B800D8B489D7030AD8B4A0D7010AD8B4B7D716
:1001C800070AD8A41200CDD778D036C008F037C0B7
:1001D80009F0000E0B6E0A0E0A6E6FEC03F0085061
:1001E800ECEC01F0010E806E1200000E046E0A0E97
:1001F800036E36C001F037C002F025EC03F001C0F1
:1002080008F002C009F0000E0B6E0A0E0A6E6FECC1
:1002180003F00850ECEC01F0020E806E1200000EA4
:10022800046E640E036E36C001F037C002F025EC90
:1002380003F001C008F002C009F0000E0B6E0A0EB0
:100248000A6E6FEC03F00850ECEC01F0040E806EBF
:100258001200030E046EE80E036E36C001F037C0BC
:1002680002F025EC03F001C008F002C009F0000E0E
:100278000B6E0A0E0A6E6FEC03F00850ECEC01F0FE
:10028800080E806E1200270E046E100E036E36C024
:1002980001F037C002F025EC03F001C008F002C0FD
:1002A80009F0000E0B6E0A0E0A6E6FEC03F0085090
:1002B800ECEC01F0200E806E12000DC00FF00EC0A5
:1002C80010F01050000AD8A412000F50000AD8B439
:1002D8007CD7010AD8B489D7030AD8B4A0D7010AB1
:1002E800D8B4B7D7070AD8A41200CDD71F6E50D0FC
:1002F8008292829482968298829A829C828E12003E
:100308008282829482968288828A828C828E12006D
:100318008292829482868298829A828C829E12002D
:100328008292829482968298828A828C829E12001D
:100338008282829482968288828A829C829E12001D
:100348008292828482968298828A829C829E1200FD
:100358008292828482968298829A829C829E1200DD
:100368008292829482968288828A828C828E1200FD
:100378008292829482968298829A829C829E1200AD
:100388008292829482968298828A829C829E1200AD
:100398001F50000AD8B4ACD7010AD8B4B1D7030AA1
:1003A800D8B4B6D7010AD8B4BBD7070AD8B4C0D7CF
:1003B800010AD8B4C5D7030AD8B4CAD7010AD8B431
:1003C800CFD70F0AD8B4D4D7010AD8A41200D8D7E7
:1003D800016E50D08292829482968298829A829CF0
:1003E800828E12008282829482968288828A828C8D
:1003F800828E12008292829482868298829A828C5D
:10040800829E12008292829482968298828A828C3C
:10041800829E12008282829482968288828A829C3C
:10042800829E12008292828482968298828A829C1C
:10043800829E12008292828482968298829A829CFC
:10044800829E12008292829482968288828A828C0C
:10045800828E12008292829482968298829A829CDC
:10046800829E12008292829482968298828A829CCC
:10047800829E12000150000AD8B4ACD7010AD8B441
:10048800B1D7030AD8B4B6D7010AD8B4BBD7070A7C
:10049800D8B4C0D7010AD8B4C5D7030AD8B4CAD7C4
:1004A800010AD8B4CFD70F0AD8B4D4D7010AD8A430
:1004B8001200D8D7CBEC02F082A01AD03A6618D036
:1004C800010E3A6E3C04D8A43C2A000E0001616F6C
:1004D800000E0001606F00016151800A590F100E73
:1004E800D8B4605DD8B004D00001604B612BF3D75D
:1004F80082B042D03A04D8A43FD0000E3A6E3C04F1
:10050800D8B43C2A000E0001636F000E0001626F30
:1005180000016351800A590F100ED8B4625DD8B03B
:100528002BD00001624B632BF3D7D59E000E7AECDB
:1005380001F0000E0001656F000E0001646F0001FC
:100548006551800A800F050ED8B4645DD8B0B4D761
:1005580064C02BF065C02CF056EC00F00001644B31
:10056800652BEDD7D58EA8D7D59E000E376E000E19
:10057800366E000E3C6EA0D73C50010AD8B4D5D7D1
:10058800030AD8B4EFD7010AD8B4EED795D7D08EDE
:10059800F80EF26E000EC16E000E926E9368010E98
:1005A800946ED59E000E7AEC01F0000E306E000EAF
:1005B8002F6E3050800A800F050ED8B42F5CD8B04B
:1005C80009D02FC02BF030C02CF056EC00F02F4A89
:1005D800302AEFD7000E0F015D6FF18CD590D582D0
:1005E800D594D596D59AD58CF28AF28CF28E1200D3
:1005F800000E246E000E236E22502110D8B41CD099
:10060800010E256E04D0D89021362236252A22AE36
:10061800FAD7D8902336243621501F5C2250205810
:10062800D8A005D021501F5E2250205A2380D89090
:1006380022322132252EEDD723C01FF024C020F00E
:100648001200000E066E000E056E04500310D8B49A
:100658001CD0010E076E04D0D89003360436072A42
:1006680004AEFAD7D890053606360350015C04501C
:100678000258D8A005D00350015E0450025A0580E4
:10068800D89004320332072EEDD705C001F006C01A
:1006980002F0120029502810D8B418D0010E2A6E82
:1006A80004D0D890283629362A2A29AEFAD72850D5
:1006B800265C29502758D8A004D02850265E2950F7
:1006C800275AD890293228322A2EF1D726C026F068
:1006D80027C027F012000B500A10D8B418D0010E0A
:1006E8000C6E04D0D8900A360B360C2A0BAEFAD70B
:1006F8000A50085C0B500958D8A004D00A50085E6C
:100708000B50095AD8900B320A320C2EF1D708C078
:1007180008F009C009F012003B6A3A6A396A386A77
:10072800376A366A480EF66E070EF76E000EF86ED8
:100738000900F5CF3CF0000EF86E00015EEF02F004
:020748000100AE
:020000040020DA
:08000000FFFFFFFFFFFFFFFF00
:020000040030CA
:0E00000015C87F7CFF8991FF0FC00FE00F40F5
:00000001FF
