:040000005AEF00F0C3
:10000800FACF06F0FBCF07F0E9CF08F0EACF09F006
:10001800E1CF0AF0E2CF0BF0D9CF0CF0DACF0DF038
:10002800F3CF0EF0F4CF0FF0F6CF10F0F7CF11F0BA
:10003800F8CF12F0F5CF13F0F2BAF2A41AD0000EEE
:10004800D76E0E0ED66E2F50D8B405D03150D8B416
:1000580002D0294A2A2A2B50040AD8A403D0000E19
:100068002B6E01D02B2A2BC002F0036A9BEC01F007
:10007800F29413C0F5FF12C0F8FF11C0F7FF10C0CB
:10008800F6FF0FC0F4FF0EC0F3FF0DC0DAFF0CC07F
:10009800D9FF0BC0E2FF0AC0E1FF09C0EAFF08C0B0
:1000A800E9FF07C0FBFF06C0FAFF110011EF02F0DD
:1000B80022C01CF023C01DF0000E1F6E0A0E1E6E1B
:1000C80013EC01F01C50306E000E176E0A0E166EFF
:1000D80022C014F023C015F0C1EC00F014C01CF0CD
:1000E80015C01DF0000E1F6E0A0E1E6E13EC01F0F7
:1000F8001C502D6E000E176E640E166E22C014F082
:1001080023C015F0C1EC00F014C01CF015C01DF0A0
:10011800000E1F6E0A0E1E6E13EC01F01C502C6EA2
:10012800030E176EE80E166E22C014F023C015F0E9
:10013800C1EC00F014C01CF015C01DF0000E1F6EBD
:100148000A0E1E6E13EC01F01C50326E270E176E4D
:10015800100E166E22C014F023C015F0C1EC00F08A
:1001680014C01CF015C01DF0000E1F6E0A0E1E6E86
:1001780013EC01F01C502E6E1200000E196E175071
:10018800800AF36E800EF35C000ED8B4165CD8B00B
:1001980006D0166C171ED8B0172A010E196E155006
:1001A800800AF36E800EF35C000ED8B4145CD8B0ED
:1001B80006D0146C151ED8B0152A010E191A000E97
:1001C8001B6E000E1A6E17501610D8B41CD0010EF4
:1001D800186E04D0D89016361736182A17AEFAD7E4
:1001E800D8901A361B361650145C17501558D8A0DC
:1001F80005D01650145E1750155A1A80D890173229
:100208001632182EEDD71950D8B404D01A6C1B1E0C
:10021800D8B01B2A1AC014F01BC015F01200000E2B
:10022800216E1D50800AF36E800EF35C000ED8B468
:100238001C5CD8B006D01C6C1D1ED8B01D2A010E3F
:10024800216E1F50800AF36E800EF35C000ED8B446
:100258001E5CD8B004D01E6C1F1ED8B01F2A1F50B9
:100268001E10D8B418D0010E206E04D0D8901E36B7
:100278001F36202A1FAEFAD71E501C5C1F501D586F
:10028800D8A004D01E501C5E1F501D5AD8901F3293
:100298001E32202EF1D72150D8B404D01C6C1D1E5C
:1002A800D8B01D2A1CC01CF01DC01DF01200016E24
:1002B8001ED07E0E826E1200300E826E12006D0EFF
:1002C800826E1200790E826E1200330E826E120058
:1002D8005B0E826E12005F0E826E1200700E826ECE
:1002E80012007F0E826E12007B0E826E1200015089
:1002F800000AD8B4DED7010AD8B4DED7030AD8B4C6
:10030800DED7010AD8B4DED7070AD8B4DED7010A87
:10031800D8B4DED7030AD8B4DED7010AD8B4DED7FA
:100328000F0AD8B4DED7010AD8A41200DDD71ED030
:10033800010E806E2E505BEC01F01200020E806EF2
:1003480032505BEC01F01200040E806E2C505BEC16
:1003580001F01200080E806E2D505BEC01F01200C7
:10036800200E806E30505BEC01F0120002C004F0E9
:1003780003C005F00550000AD8A412000450000A72
:10038800D8B4D6D7010AD8B4D9D7030AD8B4DCD799
:10039800010AD8B4DFD7070AD8A41200E1D7FDECC8
:1003A80001F081AA0CD0010E316E8188020E335CF7
:1003B800D8B002D0332A08D0000E336E05D081BAE7
:1003C80003D08188000E316E29C022F02AC023F0A4
:1003D8005CEC00F005D0000E2A6E000E296EE1D705
:1003E8003350000AD8B4F7D7010AD8B4DAD7030AC9
:1003F800D8D7E00EF26E000E926E000E946E010ECB
:10040800936E9398D590D582D594D596D59AD58C58
:10041800F28AF28CF28ED58E120000EE29F00B0EC5
:10042800EE6AE806FDE1000EF86E0001D3EF01F078
:020000040020DA
:08000000FFFFFFFFFFFFFFFF00
:020000040030CA
:0E0000001D087F7FFF8991FF0FC00FE00F40AA
:00000001FF
