:0400000056EF00F0C7
:10000800FACF14F0FBCF15F0E9CF16F0EACF17F0CE
:10001800E1CF18F0E2CF19F0D9CF1AF0DACF1BF000
:10002800F3CF1CF0F4CF1DF0F6CF1EF0F7CF1FF082
:10003800F8CF20F0F5CF21F0F2BAF2A416D0000ED6
:10004800D76E0E0ED66E3950040AD8A405D0136E9A
:10005800000E396E135001D0392A39C00FF0106ADA
:10006800EAEC00F0374A382AF29421C0F5FF20C0A4
:10007800F8FF1FC0F7FF1EC0F6FF1DC0F4FF1CC02D
:10008800F3FF1BC0DAFF1AC0D9FF19C0E2FF18C07E
:10009800E1FF17C0EAFF16C0E9FF15C0FBFF14C057
:1000A800FAFF1100ACEF03F078D037C02AF038C05F
:1000B8002BF0000E2D6E0A0E2C6E66EC03F02A5003
:1000C800F8EC01F0010E806E1200000E256E0A0E8B
:1000D800246E37C022F038C023F010EC03F022C0A1
:1000E8002AF023C02BF0000E2D6E0A0E2C6E66EC43
:1000F80003F02A50F8EC01F0020E806E1200000E98
:10010800256E640E246E37C022F038C023F010EC40
:1001180003F022C02AF023C02BF0000E2D6E0A0E29
:100128002C6E66EC03F02A50F8EC01F0040E806E99
:100138001200030E256EE80E246E37C022F038C078
:1001480023F010EC03F022C02AF023C02BF0000E9D
:100158002D6E0A0E2C6E66EC03F02A50F8EC01F0B6
:10016800080E806E1200270E256E100E246E37C002
:1001780022F038C023F010EC03F022C02AF023C08C
:100188002BF0000E2D6E0A0E2C6E66EC03F02A5032
:10019800F8EC01F0200E806E120030C032F031C051
:1001A80033F03350000AD8A412003250000AD8B4F1
:1001B8007CD7010AD8B489D7030AD8B4A0D7010AD2
:1001C800D8B4B7D7070AD8A41200CDD778D037C08B
:1001D80009F038C00AF0000E0C6E0A0E0B6E89EC9E
:1001E80003F009506BEC02F0010E806E1200000E55
:1001F800046E0A0E036E37C001F038C002F03BEC03
:1002080003F001C009F002C00AF0000E0C6E0A0EDD
:100218000B6E89EC03F009506BEC02F0020E806E55
:100228001200000E046E640E036E37C001F038C071
:1002380002F03BEC03F001C009F002C00AF0000E26
:100248000C6E0A0E0B6E89EC03F009506BEC02F091
:10025800040E806E1200030E046EE80E036E37C0A3
:1002680001F038C002F03BEC03F001C009F002C015
:100278000AF0000E0C6E0A0E0B6E89EC03F00950A2
:100288006BEC02F0080E806E1200270E046E100E42
:10029800036E37C001F038C002F03BEC03F001C038
:1002A80009F002C00AF0000E0C6E0A0E0B6E89EC03
:1002B80003F009506BEC02F0200E806E12000FC0A4
:1002C80011F010C012F01250000AD8A412001150F8
:1002D800000AD8B47CD7010AD8B489D7030AD8B49D
:1002E800A0D7010AD8B4B7D7070AD8A41200CDD727
:1002F800DEEC02F082A01FD03B661DD0366E010EE8
:100308003B6E36503D04D8A43D2A000E0001000182
:10031800666F000E0001656F000100016651800ADA
:10032800590F100ED8B4655DD8B005D00001000192
:10033800654B662BF1D782B04CD03B04D8A449D08A
:10034800366E000E3B6E36503D04D8B43D2A000E82
:1003580000010001686F000E0001676F00010001D5
:100368006851800A590F100ED8B4675DD8B031D0E3
:1003780000010001674B682BF1D7D59E000EF8EC01
:1003880001F0000E000100016A6F000E0001696FA4
:10039800000100016A51800A800F050ED8B4695D1A
:1003A800D8B0A8D769C030F06AC031F058EC00F076
:1003B80000010001694B6A2BEBD7D58E9BD7D59EE0
:1003C800000E386E000E376E366E000E3D6E3650DB
:1003D80091D73D50010AD8B4D0D7030AD8B4EDD785
:1003E800010AD8B4ECD786D7E8CF22F050D0829251
:1003F800829482968298829A829C828E120082824D
:10040800829482968288828A828C828E120082925C
:10041800829482868298829A828C829E120082922C
:10042800829482968298828A828C829E120082822C
:10043800829482968288828A829C829E120082920C
:10044800828482968298828A829C829E12008292FC
:10045800828482968298829A829C829E12008292DC
:10046800829482968288828A828C828E12008292FC
:10047800829482968298829A829C829E12008292AC
:10048800829482968298828A829C829E120022504E
:10049800000AD8B4ACD7010AD8B4B1D7030AD8B483
:1004A800B6D7010AD8B4BBD7070AD8B4C0D7010A4F
:1004B800D8B4C5D7030AD8B4CAD7010AD8B4CFD795
:1004C8000F0AD8B4D4D7010AD8A41200D8D7E8CFD5
:1004D80001F050D08292829482968298829A829C6D
:1004E800828E12008282829482968288828A828C8C
:1004F800828E12008292829482868298829A828C5C
:10050800829E12008292829482968298828A828C3B
:10051800829E12008282829482968288828A829C3B
:10052800829E12008292828482968298828A829C1B
:10053800829E12008292828482968298829A829CFB
:10054800829E12008292829482968288828A828C0B
:10055800828E12008292829482968298829A829CDB
:10056800829E12008292829482968298828A829CCB
:10057800829E12000150000AD8B4ACD7010AD8B440
:10058800B1D7030AD8B4B6D7010AD8B4BBD7070A7B
:10059800D8B4C0D7010AD8B4C5D7030AD8B4CAD7C3
:1005A800010AD8B4CFD70F0AD8B4D4D7010AD8A42F
:1005B8001200D8D7D08EF80EF26E000EC16E000E63
:1005C800926E9368010E946ED59E000EF8EC01F0C1
:1005D800000E356E000E346E3550800A800F050E01
:1005E800D8B4345CD8B009D034C030F035C031F05C
:1005F80058EC00F0344A352AEFD7000E0F010F01EE
:100608005D6FF18CD590D582D594D596D59AD58C39
:10061800F28AF28CF28E1200000E286E000E276EFF
:1006280025502410D8B41ED0266E010E296E2650EF
:1006380004D0D89024362536292A25AEFAD7D89062
:10064800273628362450225C25502358D8A005D0B8
:100658002450225E2550235A2780D89025322432F0
:10066800292EEDD727C022F028C023F01200000E53
:10067800076E000E066E04500310D8B41ED0056E27
:10068800010E086E055004D0D89003360436082AA7
:1006980004AEFAD7D890063607360350015C0450EA
:1006A8000258D8A005D00350015E0450025A0680B3
:1006B800D89004320332082EEDD706C001F007C0E7
:1006C80002F012002D502C10D8B41AD02E6E010E44
:1006D8002F6E2E5004D0D8902C362D362F2A2DAEC2
:1006E800FAD72C502A5C2D502B58D8A004D02C5067
:1006F8002A5E2D502B5AD8902D322C322F2EF1D71E
:100708002AC02AF02BC02BF012000C500B10D8B4C2
:100718001AD00D6E010E0E6E0D5004D0D8900B3607
:100728000C360E2A0CAEFAD70B50095C0C500A583E
:10073800D8A004D00B50095E0C500A5AD8900C323D
:100748000B320E2EF1D709C009F00AC00AF01200C8
:100758003C6A3B6A3A6A396A386A376A800EF66ECA
:10076800070EF76E000EF86E0900F5CF3DF0000E8B
:0A077800F86E00017CEF01F00100B3
:020000040020DA
:08000000FFFFFFFFFFFFFFFF00
:020000040030CA
:0E00000015C87F7CFF8991FF0FC00FE00F40F5
:00000001FF
